:100000000C945D000C9485000C9485000C94850084
:100010000C9485000C9485000C9485000C9485004C
:100020000C9485000C9485000C9485000C9485003C
:100030000C9485000C9485000C9485000C9485002C
:100040000C949F080C9485000C946D080C94470840
:100050000C9485000C9485000C9485000C9485000C
:100060000C94E9080C9485000000000800020100CF
:100070000003040700000000000000000000000072
:10008000250028002B0000000000240027002A0083
:10009000040404040404040402020202020203032E
:1000A0000303030301020408102040800102040836
:1000B0001020010204081020080A11241FBECFEFEF
:1000C000D8E0DEBFCDBF23E0A4E9B1E001C01D92BE
:1000D000A032B207E1F711E0A0E0B1E0EAE3FBE112
:1000E00002C005900D92A439B107D9F710E0CDE513
:1000F000D0E004C02197FE010E94700CCC35D107DE
:10010000C9F70E945E0A0C949B0D0C94000090E0CD
:10011000FC01EC55FF4F249180579F4FFC018491C7
:10012000882399F090E0880F991FFC01EA57FF4F50
:10013000A591B491FC01E458FF4F859194918FB73C
:10014000F894EC91E22BEC938FBF089580E48093B8
:100150007C0080917A00806480937A0080917A009C
:1001600086FDFCCF809178009091790008950895E4
:100170000895AF92BF92CF92DF92EF92FF920F93CA
:100180001F93CF93DF936C017B018B01040F151F2D
:10019000EB015E01AE18BF08C017D10759F0699195
:1001A000D601ED91FC910190F081E02DC6010995F9
:1001B000892B79F7C501DF91CF911F910F91FF90A6
:1001C000EF90DF90CF90BF90AF900895FC01538DDA
:1001D000448D252F30E0842F90E0821B930B541721
:1001E00010F0CF96089501970895FC01918D828DAE
:1001F000981761F0A28DAE0FBF2FB11D5D968C9147
:10020000928D9F5F9F73928F90E008958FEF9FEF85
:100210000895FC01918D828D981731F0828DE80F41
:10022000F11D858D90E008958FEF9FEF0895FC01FB
:10023000918D228D892F90E0805C9F4F821B9109C8
:100240008F73992708958BE592E00E94170121E0B2
:10025000892B09F420E0822F089580E090E0892B1B
:1002600029F00E94230181110C9400000895FC01E3
:10027000A48DA80FB92FB11DA35ABF4F2C91848D07
:1002800090E001968F739927848FA689B7892C9364
:10029000A089B1898C91837080648C93938D848DB7
:1002A000981306C00288F389E02D80818F7D8083BA
:1002B0000895EF92FF920F931F93CF93DF93EC017A
:1002C00081E0888F9B8D8C8D98131AC0E889F989FD
:1002D000808185FF15C09FB7F894EE89FF89608300
:1002E000E889F98980818370806480839FBF81E081
:1002F00090E0DF91CF911F910F91FF90EF900895C3
:10030000F62E0B8D10E00F5F1F4F0F731127E02E9D
:100310008C8D8E110CC00FB607FCFACFE889F989D5
:10032000808185FFF5CFCE010E943701F1CFEB8DA3
:10033000EC0FFD2FF11DE35AFF4FF0829FB7F894A9
:100340000B8FEA89FB8980818062CFCFCF93DF93C7
:10035000EC01888D8823B9F0AA89BB89E889F989DD
:100360008C9185FD03C0808186FD0DC00FB607FC12
:10037000F7CF8C9185FFF2CF808185FFEDCFCE0145
:100380000E943701E9CFDF91CF91089590E0FC0101
:10039000E859FF4F2491FC01EC55FF4F3491FC01CB
:1003A000E057FF4FE491EE23C9F0222339F02330C8
:1003B00001F1A8F4213019F1223029F1F0E0EE0F1B
:1003C000FF1FE458FF4FA591B4918FB7F894EC91BB
:1003D000611126C030953E233C938FBF089527308E
:1003E000A9F02830C9F0243049F7809180008F7D32
:1003F00003C0809180008F7780938000DFCF84B529
:100400008F7784BDDBCF84B58F7DFBCF8091B0002B
:100410008F778093B000D2CF8091B0008F7DF9CFDD
:100420003E2BDACF3FB7F8948091DD019091DE0149
:10043000A091DF01B091E00126B5A89B05C02F3F38
:1004400019F00196A11DB11D3FBFBA2FA92F982FFA
:100450008827BC01CD01620F711D811D911D42E0F5
:10046000660F771F881F991F4A95D1F708958F92BD
:100470009F92AF92BF92CF92DF92EF92FF924B0189
:100480005C010E9412026B017C010E9412026C1935
:100490007D098E099F09683E734081059105A8F387
:1004A00021E0821A9108A108B10888EEC80E83E005
:1004B000D81EE11CF11C81149104A104B10429F798
:1004C000FF90EF90DF90CF90BF90AF909F908F9074
:1004D00008952091B501260F3327331F21323105AE
:1004E000ECF420913102FC0190E080E0243069F0CE
:1004F00082E00895A091B5012191AC014B565E4F69
:10050000A40FB52FB11D2C930196861798F38091F7
:10051000B501680F6093B50180E0089581E008950A
:100520001092310281E08093300210920B0261E060
:1005300082E10E94C60161E083E10E94C601E9EB0D
:10054000F0E080818E7F808380818D7F808388E44E
:100550008093B80085E48093BC000895CF93DF9327
:1005600091E0909394018823B9F0C091B800D091A4
:10057000BA008091BC008A7B8093BC0060E082E17D
:100580000E94C60160E083E10E94C6010E949002C1
:10059000D093BA00C093B800DF91CF9108958F92A5
:1005A0009F92AF92BF92CF92DF92EF92FF920F9302
:1005B0001F93CF93DF93D0915A02D13208F0D7C066
:1005C000182FC09159020E9412026B017C01809188
:1005D000310281116BC082E08093310210933002AE
:1005E0008FEF80932F0210922E02D0932D02A9E359
:1005F000B2E0EDE0F2E080E0D81391C010920C027E
:1006000080910C02CC0FC82BC0930C0280910B027E
:10061000813009F088C010920B020E9412026B0117
:100620007C0180910C028093BB00809133029091F9
:100630003402A0913502B0913602892B8A2B8B2B84
:10064000A1F00E9412020091330210913402209115
:100650003502309136026C197D098E099F09061703
:1006600017072807390708F442C08091BC0083FDB2
:10067000D8CF85EC8093BC000E9412026B017C01F4
:1006800080913102823009F450C080912F028F3F57
:1006900009F46FC080912F02803209F46CC0809100
:1006A0002F02803309F469C084E026C080913302B0
:1006B00090913402A0913502B0913602892B8A2B99
:1006C0008B2B09F484CF0E94120280903302909009
:1006D0003402A0903502B09036026C197D098E0963
:1006E0009F0986169706A806B90608F070CF809174
:1006F00032020E94AE0285E01092380210925A0235
:1007000010923702DF91CF911F910F91FF90EF90E0
:10071000DF90CF90BF90AF909F908F9008959D9164
:1007200091938F5F69CF85EEA5CF80913302909131
:100730003402A0913502B0913602892B8A2B8B2B83
:1007400009F49ECF0E9412020091330210913402EC
:1007500020913502309136026C197D098E099F096E
:10076000061717072807390708F08ACFC0CF81E09E
:10077000C3CF80E0C1CF82E0BFCF83E0BDCF08957B
:10078000E091E8018091E701E81730F4F0E0E751EB
:10079000FE4F808190E008958FEF9FEF0895909134
:1007A000E8018091E7012FEF3FEF981748F4E92F18
:1007B000F0E0E751FE4F208130E09F5F9093E80129
:1007C000C90108958091E7019091E801891B990B77
:1007D0000895CF92DF92EF92FF920F931F93CF93E2
:1007E000DF937C01CB018A0120913702222389F01B
:1007F000EB016B01C40ED51ECC15DD0569F06991C6
:10080000D701ED91FC910190F081E02DC701099590
:10081000F3CF642F0E946902C801DF91CF911F912D
:100820000F91FF90EF90DF90CF900895CF93DF93DB
:100830001F92CDB7DEB76983209137022223F9F0EA
:1008400020915A02203258F021E030E0FC0133833D
:10085000228390E080E00F90DF91CF910895809106
:100860003802E82FF0E0E75CFD4F998190838F5FBD
:100870008093380280935A0281E090E0ECCF61E0EF
:10088000CE0101960E946902F7CF1F93CF93DF93A9
:10089000EA01122FDC0111968D919C91DC01ED9102
:1008A000FC910280F381E02D0995C817D90729F43E
:1008B000812F0E94CF0291E0811190E0892FDF917A
:1008C000CF911F910895CF93DF93EC018B81882303
:1008D000A1F0888191E090933702809359021092A1
:1008E000380210925A0281E00E94CF0291E08111F9
:1008F00090E0892FDF91CF9108951092E801109236
:10090000E7011092380210925A020E94900287EB7F
:1009100090E09093E4018093E30188EB90E0909362
:10092000E2018093E10181E08B83CE010E946304A8
:10093000982F8111CECFDDCF089590E080E008950B
:100940002F923F924F925F926F927F928F929F92DF
:10095000AF92BF92CF92DF92EF92FF920F931F93CD
:10096000CF93DF9300D000D000D01F92CDB7DEB779
:100970007C0119828090090290900A02D401149699
:100980008D919C911597892B09F418C18C9191E058
:1009900090933702809359021092380210925A02B3
:1009A00020E041E050E0BE016F5F7F4FC4010E9434
:1009B0004504882309F402C1B12CA12CA7E02A2EFA
:1009C000312CF401848195816101CA18DB088C15F2
:1009D0009D0508F46C01D4010C910E9412022B01B8
:1009E0003C0180913102811173C01C2D113208F03D
:1009F00010E2B1E0B093310221E0C1018C199D09F0
:100A0000A816B90608F420E020933002EFEFE09337
:100A10002F0210922E028FEF810F80932D02F1E0B2
:100A2000F0930C0280910C02000F082B00930C0233
:100A300080910B02813009F094C010920B020E9449
:100A400012022B013C0180910C028093BB0080912B
:100A5000330290913402A0913502B0913602892B75
:100A60008A2B8B2BA1F00E9412022091330230912D
:100A70003402409135025091360264197509860995
:100A80009709261737074807590708F442C080918D
:100A9000BC0083FDD8CF85EC8093BC000E9412027D
:100AA0002B013C0180913102813009F45EC08091BC
:100AB0002E02811710F410912E02ADE0B2E0E9EEA3
:100AC000F1E080E0811751F19D9191938F5FFACF12
:100AD0008091330290913402A0913502B091360298
:100AE000892B8A2B8B2B09F47CCF0E941202209138
:100AF000330230913402409135025091360264192C
:100B0000750986099709261737074807590708F016
:100B100068CF809132020E94AE0210E01092E8018C
:100B20001093E7011C151D0409F048C001E010E016
:100B30000C0F1D1F0A0D1B1D3801C80186199709CE
:100B40008C159D05A0F5F40181819281DC01ED9168
:100B5000FC910284F385E02D0995F80181938F01C2
:100B6000ECCFA5EEA093BC0099CF80913302909179
:100B70003402A0913502B0913602892B8A2B8B2B3F
:100B800009F490CF0E941202209133023091340276
:100B9000409135025091360264197509860997090A
:100BA000261737074807590708F07CCFB2CFAC0C9F
:100BB000BD1CF7E0AF16B10408F403CFE981EF776D
:100BC000FA811B814D815E818F81282F30E094E076
:100BD000359527959A95E1F7922F990F990F291B33
:100BE000220F280FD7012C93852F90E024E09595B4
:100BF00087952A95E1F7982F990F990F891B880FF0
:100C0000850F11968C931197642F70E034E07595E1
:100C100067953A95E1F7862F880F880F681B660F56
:100C2000640F12966C931297412F50E064E0559533
:100C300047956A95E1F7842F880F880F481B440F6A
:100C4000410F13964C9313972F2F30E074E0359596
:100C500027957A95E1F7822F880F880F281B220F9E
:100C60002F0F14962C9314978E2F90E0F4E0959507
:100C70008795FA95E1F7982F990F990F891B880F9F
:100C80008E0F15968C93C70127960FB6F894DEBF8A
:100C90000FBECDBFDF91CF911F910F91FF90EF90CD
:100CA000DF90CF90BF90AF909F908F907F906F908C
:100CB0005F904F903F902F900895CF93DF93EC017A
:100CC00060E08E810E94C60161E08E810E94C601B3
:100CD00060E08E810E94C6018BE891E00197F1F7F8
:100CE000DF91CF910895CF92DF92EF92FF920F9311
:100CF0001F93CF93DF936C017C0187E0E80EF11C1A
:100D0000D0E0C0E0062F10E0B8010C2E02C07595AF
:100D100067950A94E2F76170F70181917F010E9463
:100D2000C6012196C430D10579F7C601DF91CF9174
:100D30001F910F91FF90EF90DF90CF900C945D0684
:100D4000CF92DF92EF92FF920F931F93CF93DF9397
:100D5000EC01F62E642F8C810E94C6018D818F3F9D
:100D600019F060E00E94C6010F2D10E08F8584FF0E
:100D700025C06E0187E0C80ED11CF12CE12CB80112
:100D80000E2C02C0759567950A94E2F76170F60122
:100D900081916F010E94C601FFEFEF1AFF0A88E000
:100DA000E816F10461F7CE01DF91CF911F910F9109
:100DB000FF90EF90DF90CF900C945D06B80184E037
:100DC000759567958A95E1F7CE010E9473066F2DA0
:100DD000CE01DF91CF911F910F91FF90EF90DF90A7
:100DE000CF900C94730640E0682F84E093E00C945D
:100DF000A006CF93DF93823029F49091130398607B
:100E000090931303809317031092180380E4809348
:100E1000190380E180931A0380E580931B0380917E
:100E200008030E948700809109038F3F11F00E9400
:100E3000870080910A030E948700C4E0D3E09E01EE
:100E4000245033408091130384FD0AC084E090E075
:100E50002196281739073CF48E810E948700EFCF36
:100E600088E090E0F5CF8BE39DE00197F1F760E03B
:100E7000809108030E94C60160E080910A030E94ED
:100E8000C601809109038F3F19F060E00E94C601FE
:100E90008091130384FD39C063E084E093E00E94F5
:100EA0007306CBE4D6E4CE010197F1F763E084E06A
:100EB00093E00E9473062197F1F763E084E093E0EA
:100EC0000E94730683E592E00197F1F762E084E007
:100ED00093E00E9473068091130380620E94F306E0
:100EE00084E0809314038CE00E94F30681E00E946A
:100EF000F3068BE39FE10197F1F782E080931503FE
:100F000086E0DF91CF910C94F30680620E94F30695
:100F10008BE496E40197F1F78091130380620E94BD
:100F2000F30683E592E00197F1F780911303806265
:100F30000E94F306D0CF643008F063E0909117036D
:100F4000691710F06FEF690FE62FF0E0EC5FFC4FD0
:100F50009489890F80680C94F30641E00E94A006F2
:100F600081E090E00895FB0101900020E9F73197BE
:100F7000AF01461B570BDC01ED91FC910280F38120
:100F8000E02D09948F929F92AF92BF920F931F937F
:100F9000CF93DF93CDB7DEB7A1970FB6F894DEBF3E
:100FA0000FBECDBF19A2423008F44AE08E010F5D9A
:100FB0001F4F842E912CB12CA12CA50194010E94CD
:100FC0004E0CE62FB901CA01EA3004F5E05DD80104
:100FD000EE938D01232B242B252B79F790E080E0D5
:100FE000109729F0BD0184E093E00E94B307A19619
:100FF0000FB6F894DEBF0FBECDBFDF91CF911F912A
:101000000F91BF90AF909F908F900895E95CDFCFD4
:10101000682F70E090E080E04AE00C94C20785ED14
:101020008093BC008091330290913402A0913502EC
:10103000B09136020796A11DB11D23E0B695A79584
:10104000979587952A95D1F72091BC0024FD03C080
:101050001092310208954091330250913402609110
:10106000350270913602452B462B472B69F30097CA
:10107000A105B10541F02AE22A95F1F700C00197D8
:10108000A109B109E1CF809132020C94AE021F9206
:101090000F920FB60F9211242F933F934F935F93AC
:1010A0006F937F938F939F93AF93BF93EF93FF9330
:1010B0008BE592E00E943701FF91EF91BF91AF91D4
:1010C0009F918F917F916F915F914F913F912F9160
:1010D0000F900FBE0F901F9018951F920F920FB692
:1010E0000F9211242F938F939F93EF93FF93E0918F
:1010F0006B02F0916C028081E0917102F0917202BA
:1011000082FD1BC09081809174028F5F8F7320914C
:101110007502821741F0E0917402F0E0E55AFD4F4C
:10112000958F80937402FF91EF919F918F912F91F2
:101130000F900FBE0F901F9018958081F4CF1F92D3
:101140000F920FB60F9211242F933F938F939F937B
:10115000AF93BF938091D9019091DA01A091DB0107
:10116000B091DC013091D80123E0230F2D3758F5E1
:101170000196A11DB11D2093D8018093D9019093B0
:10118000DA01A093DB01B093DC018091DD01909145
:10119000DE01A091DF01B091E0010196A11DB11D1A
:1011A0008093DD019093DE01A093DF01B093E00115
:1011B000BF91AF919F918F913F912F910F900FBE53
:1011C0000F901F90189526E8230F0296A11DB11DC0
:1011D000D2CF1F920F920FB60F9211242F933F93ED
:1011E0004F935F936F937F938F939F93AF93BF932F
:1011F000EF93FF938091B900887F803609F44AC04D
:10120000F0F5883209F4A7C018F5803109F49BC0C5
:10121000B8F4882309F4F9C0883009F494C0FF9128
:10122000EF91BF91AF919F918F917F916F915F915E
:101230004F913F912F910F900FBE0F901F901895D7
:10124000883109F488C0803251F780932F0214C08E
:10125000803409F49DC040F48033B9F38833F9F643
:1012600080932F0285ECB0C0803509F485C08835A5
:1012700009F496C0883499F60E940F08D0CF8839B7
:1012800009F48CC038F5883729F050F4883611F00D
:10129000803729F683E0809331021092D70157C03E
:1012A000883809F47BC0803919F0803809F0B7CF4D
:1012B0008091D701803208F071C0E091D70181E0C0
:1012C0008E0F8093D7018091BB00F0E0E954FE4F70
:1012D00080833DC0803B39F0E0F4803A09F479C066
:1012E000883A09F09CCF84E0809331021092B601D5
:1012F0001092B501E091E301F091E401099580912C
:10130000B50181110FC081E08093B5011092950164
:1013100009C0803C09F4A6CF883C09F4A3CF883BE0
:1013200009F07DCFE091B60181E08E0F8093B60188
:10133000F0E0EB56FE4F80818093BB009091B601A8
:101340008091B50129C080910C028093BB0085EC8F
:101350008093BC0064CF90912E0280912D0298174B
:1013600058F5E0912E0281E08E0F80932E02F0E07E
:10137000E35FFD4F8081E9CFE0912E0281E08E0F87
:1013800080932E028091BB00F0E0E35FFD4F8083ED
:1013900090912E0280912D029817C8F285E8D8CF3F
:1013A000E0912E0281E08E0F80932E028091BB008F
:1013B000F0E0E35FFD4F80838091300281115CCFCC
:1013C00081E080930B0284EA8093BC00109231028A
:1013D00026CF85EC8093BC00109231028091D7011A
:1013E000803230F4E091D701F0E0E954FE4F1082F2
:1013F0006091D70170E0E091E101F091E20187EBAB
:1014000091E009951092D7010ACF10922F0234CFA4
:10141000EBE5F2E01382128288EE93E0A0E0B0E008
:1014200084839583A683B78323E431E031832083CB
:1014300025EC30E03587248724EC30E03787268799
:1014400020EC30E0318B208B21EC30E0338B228B91
:1014500022EC30E0358B248B26EC30E0378B268B6A
:10146000118E128E138E148EE8EFF2E01382128228
:1014700084839583A683B78385E591E091838083F8
:10148000E4E0F3E01382128287E691E091838083A7
:101490008CE084838FEF85838BE0868385E0878370
:1014A00084E0808783E0818782E0828713861486C8
:1014B00015861686178681E00C94F906CF93DF9384
:1014C000CDB7DEB728970FB6F894DEBF0FBECDBFFD
:1014D000789484B5826084BD84B5816084BD85B50F
:1014E000826085BD85B5816085BD80916E0081601B
:1014F00080936E00109281008091810082608093C1
:1015000081008091810081608093810080918000C2
:101510008160809380008091B10084608093B100ED
:101520008091B00081608093B00080917A008460E7
:1015300080937A0080917A00826080937A00809113
:101540007A00816080937A0080917A00806880932D
:101550007A001092C100E0916B02F0916C0282E07F
:101560008083E0916702F09168021082E091690245
:10157000F0916A028FEC808310927302E0916F0207
:10158000F091700286E08083E0916D02F0916E022E
:10159000808180618083E0916D02F0916E02808194
:1015A00088608083E0916D02F0916E028081806896
:1015B0008083E0916D02F0916E0280818F7D808347
:1015C00080E190E09093E6018093E50182E00E9443
:1015D000F9068091090290910A02009711F00E9489
:1015E000120D86E090E00E94760C8C0188E6F801EE
:1015F000808388EF92E092838183138280E290E07F
:101600009583848310930A02009309021092E801E3
:101610001092E7011092380210925A020E94900232
:1016200087EB90E09093E4018093E30188EB90E0F6
:101630009093E2018093E101FF24F394F801F38297
:10164000C8010E9463048E010F5F1F4F86E0F801FE
:1016500011928A95E9F789E08A8380E38B8382E19E
:101660008C8383E28E8381E18F8382E288878091FD
:10167000090290910A02FC0124813581283031054C
:1016800078F02081F09237022093590210923802AC
:1016900010925A0221E048E050E0B8010E9445044F
:1016A00020E0E22E20E0F22E60E080E00E949B0726
:1016B000C8010E94A004698170E06053784F90E0F7
:1016C00080E04AE00E94C20760E085E00E949B073C
:1016D000C8010E94A0048A810E94080860E088E096
:1016E0000E949B07C8010E94A0048B810E940808E9
:1016F00061E080E00E949B07C8010E94A0048C81E9
:101700000E94080861E082E00E949B076FE671E09A
:1017100084E093E00E94B30761E083E00E949B07AE
:10172000C8010E94A0048D810E94080861E085E044
:101730000E949B076FE671E084E093E00E94B3078C
:1017400061E086E00E949B07C8010E94A0048E8190
:101750000E9408080E94A6006C01883E93400CF08D
:1017600051C06AE070E080E090E00E9437020E9481
:10177000A6005C018C199D0997FF03C09195819586
:10178000910906974CF065E070E080E090E00E94DF
:1017900037020E94A6005C019FE1892E91E0992EFC
:1017A000D12CC12C8091E5019091E601C816D90693
:1017B0004CF5F401819191914F019501281B390B52
:1017C000C90104960997D0F4F601E25FFE4F6081EB
:1017D0008BE592E00E94590161E771E08BE592E0B0
:1017E0000E94B3070E94A600883E93403CF464E642
:1017F00070E080E090E00E943702F4CF8FEFC81ACB
:10180000D80AD0CF80E40E94F30680E0C82E81E0A1
:10181000D82EF60161916F0184E093E00E94AD073C
:10182000F8E0CF16F1E0DF06A1F760E080E00E946B
:101830009B0764E771E084E093E00E94B30760E0F7
:1018400080E00E949B0765E871E084E093E00E94DD
:10185000B30760E08FE00E949B0760E084E093E0C4
:101860000E94AD0768EE73E080E090E00E943702CE
:1018700060E080E00E949B0764E771E084E093E011
:101880000E94B307E114F10409F40ECF0E94230172
:10189000882309F409CF0E94000006CFA1E21A2E86
:1018A000AA1BBB1BFD010DC0AA1FBB1FEE1FFF1F04
:1018B000A217B307E407F50720F0A21BB30BE40B54
:1018C000F50B661F771F881F991F1A9469F760959B
:1018D0007095809590959B01AC01BD01CF01089555
:1018E000EE0FFF1F0590F491E02D09940F931F93C5
:1018F000CF93DF938230910510F482E090E0E09185
:101900001E03F0911F0330E020E0B0E0A0E030972C
:1019100099F42115310509F44AC0281B390B2430EC
:101920003105D8F58A819B816115710589F1FB012B
:1019300093838283FE0111C0408151810281138112
:1019400048175907E0F04817590799F4109761F0C4
:1019500012960C93129713961C933296CF01DF9137
:10196000CF911F910F91089500931E0310931F03B1
:10197000F4CF2115310551F04217530738F0A90172
:10198000DB019A01BD01DF01F801C1CFEF01F9CF01
:1019900090931F0380931E03CDCFFE01E20FF31F30
:1019A000819391932250310939832883D7CF209195
:1019B0001C0330911D03232B41F420910A01309127
:1019C0000B0130931D0320931C03209108013091DB
:1019D00009012115310541F42DB73EB740910C01A5
:1019E00050910D01241B350BE0911C03F0911D0358
:1019F000E217F307A0F42E1B3F0B2817390778F0E6
:101A0000AC014E5F5F4F2417350748F04E0F5F1F44
:101A100050931D0340931C03819391939FCFF0E05B
:101A2000E0E09CCFCF93DF930097E9F0FC01329781
:101A300013821282A0911E03B0911F03ED0130E0CA
:101A400020E01097A1F420813181820F931F209113
:101A50001C0330911D032817390709F061C0F0936A
:101A60001D03E0931C03DF91CF910895EA01CE1787
:101A7000DF07E8F54A815B819E0141155105B1F709
:101A8000E901FB83EA8349915991C40FD51FEC17F3
:101A9000FD0761F4808191810296840F951FE90111
:101AA00099838883828193819B838A83F0E0E0E03D
:101AB00012968D919C9113970097B9F52D913C91B9
:101AC0001197CD010296820F931F20911C03309134
:101AD0001D032817390739F6309751F510921F0367
:101AE00010921E03B0931D03A0931C03BCCFD3839D
:101AF000C28340815181840F951FC817D90761F4B3
:101B00004E5F5F4F88819981480F591F51834083F1
:101B10008A819B81938382832115310509F0B0CF9F
:101B2000F0931F03E0931E039ECFFD01DC01C0CFA5
:0A1B300013821282D7CFF894FFCF82
:101B3A00040E0E0E1F000400000020038000313244
:101B4A00334134353642373839432A302344003B4F
:101B5A00006C00A200B7004B0255026102660277D0
:101B6A0002800289028D029C02A202AA02AE02002F
:101B7A000000005901B900E600A6011701F50009A5
:101B8A0001000000001604E9039D04BF03E203CF2D
:101B9A0003C00300000000AD07B9009D049C043A8D
:101BAA00000D0A0020202020202020202020202094
:101BBA0020202020005052455353202320544F20E8
:041BCA00534554002B
:00000001FF
